{
    "contractName": "GasBoy",
    "abi": [
        {
            "constant": true,
            "inputs": [
                {
                    "name": "",
                    "type": "address"
                }
            ],
            "name": "nonce",
            "outputs": [
                {
                    "name": "",
                    "type": "uint256"
                }
            ],
            "payable": false,
            "stateMutability": "view",
            "type": "function",
            "signature": "0x70ae92d2"
        },
        {
            "constant": true,
            "inputs": [
                {
                    "name": "",
                    "type": "address"
                }
            ],
            "name": "signers",
            "outputs": [
                {
                    "name": "",
                    "type": "bool"
                }
            ],
            "payable": false,
            "stateMutability": "view",
            "type": "function",
            "signature": "0x736c0d5b"
        },
        {
            "inputs": [],
            "payable": false,
            "stateMutability": "nonpayable",
            "type": "constructor",
            "signature": "constructor"
        },
        {
            "payable": true,
            "stateMutability": "payable",
            "type": "fallback"
        },
        {
            "anonymous": false,
            "inputs": [
                {
                    "indexed": true,
                    "name": "_account",
                    "type": "address"
                },
                {
                    "indexed": false,
                    "name": "_status",
                    "type": "bool"
                }
            ],
            "name": "UpdateSigners",
            "type": "event",
            "signature": "0xc56d2bffd36262d8729e7044ab1a0c75bff0a95afcab380c95b56c6b32e415bf"
        },
        {
            "anonymous": false,
            "inputs": [
                {
                    "indexed": true,
                    "name": "sender",
                    "type": "address"
                },
                {
                    "indexed": false,
                    "name": "value",
                    "type": "uint256"
                }
            ],
            "name": "Received",
            "type": "event",
            "signature": "0x88a5966d370b9919b20f3e2c13ff65706f196a4e32cc2c12bf57088f88525874"
        },
        {
            "anonymous": false,
            "inputs": [
                {
                    "indexed": false,
                    "name": "sig",
                    "type": "bytes"
                },
                {
                    "indexed": true,
                    "name": "signer",
                    "type": "address"
                },
                {
                    "indexed": true,
                    "name": "destination",
                    "type": "address"
                },
                {
                    "indexed": false,
                    "name": "value",
                    "type": "uint256"
                },
                {
                    "indexed": false,
                    "name": "data",
                    "type": "bytes"
                },
                {
                    "indexed": false,
                    "name": "rewardToken",
                    "type": "address"
                },
                {
                    "indexed": false,
                    "name": "rewardAmount",
                    "type": "uint256"
                },
                {
                    "indexed": false,
                    "name": "_hash",
                    "type": "bytes32"
                }
            ],
            "name": "Forwarded",
            "type": "event",
            "signature": "0x6d4a868d9686051f889f61dc96415c0809f248cd6ce33eb543ff445b972084fe"
        },
        {
            "constant": false,
            "inputs": [
                {
                    "name": "_account",
                    "type": "address"
                },
                {
                    "name": "_status",
                    "type": "bool"
                }
            ],
            "name": "updateSigners",
            "outputs": [],
            "payable": false,
            "stateMutability": "nonpayable",
            "type": "function",
            "signature": "0xf93af357"
        },
        {
            "constant": false,
            "inputs": [
                {
                    "name": "sig",
                    "type": "bytes"
                },
                {
                    "name": "signer",
                    "type": "address"
                },
                {
                    "name": "destination",
                    "type": "address"
                },
                {
                    "name": "value",
                    "type": "uint256"
                },
                {
                    "name": "data",
                    "type": "bytes"
                },
                {
                    "name": "rewardToken",
                    "type": "address"
                },
                {
                    "name": "rewardAmount",
                    "type": "uint256"
                }
            ],
            "name": "forward",
            "outputs": [],
            "payable": false,
            "stateMutability": "nonpayable",
            "type": "function",
            "signature": "0x622f9730"
        },
        {
            "constant": true,
            "inputs": [
                {
                    "name": "signer",
                    "type": "address"
                },
                {
                    "name": "destination",
                    "type": "address"
                },
                {
                    "name": "value",
                    "type": "uint256"
                },
                {
                    "name": "data",
                    "type": "bytes"
                },
                {
                    "name": "rewardToken",
                    "type": "address"
                },
                {
                    "name": "rewardAmount",
                    "type": "uint256"
                }
            ],
            "name": "getHash",
            "outputs": [
                {
                    "name": "",
                    "type": "bytes32"
                }
            ],
            "payable": false,
            "stateMutability": "view",
            "type": "function",
            "signature": "0x0ee02d9d"
        }
    ],
    "bytecode": "0x608060405234801561001057600080fd5b50336000908152600160208190526040909120805460ff19169091179055610bb58061003d6000396000f30060806040526004361061006c5763ffffffff7c01000000000000000000000000000000000000000000000000000000006000350416630ee02d9d81146100a4578063622f97301461013657806370ae92d2146101ff578063736c0d5b14610220578063f93af35714610255575b60408051348152905133917f88a5966d370b9919b20f3e2c13ff65706f196a4e32cc2c12bf57088f88525874919081900360200190a2005b3480156100b057600080fd5b50604080516020601f60643560048181013592830184900484028501840190955281845261012494600160a060020a03813581169560248035909216956044359536956084940191819084018382808284375094975050508335600160a060020a031694505050602090910135905061027b565b60408051918252519081900360200190f35b34801561014257600080fd5b506040805160206004803580820135601f81018490048402850184019095528484526101fd94369492936024939284019190819084018382808284375050604080516020601f60608a01358b0180359182018390048302840183018552818452989b600160a060020a038b3581169c848d01359091169b958601359a91995097506080909401955091935091820191819084018382808284375094975050508335600160a060020a031694505050602090910135905061042a565b005b34801561020b57600080fd5b50610124600160a060020a0360043516610839565b34801561022c57600080fd5b50610241600160a060020a036004351661084b565b604080519115158252519081900360200190f35b34801561026157600080fd5b506101fd600160a060020a03600435166024351515610860565b6000308787878787876000808f600160a060020a0316600160a060020a03168152602001908152602001600020546040516020018089600160a060020a0316600160a060020a03166c0100000000000000000000000002815260140188600160a060020a0316600160a060020a03166c0100000000000000000000000002815260140187600160a060020a0316600160a060020a03166c0100000000000000000000000002815260140186815260200185805190602001908083835b602083106103565780518252601f199092019160209182019101610337565b6001836020036101000a03801982511681845116808217855250505050505090500184600160a060020a0316600160a060020a03166c01000000000000000000000000028152601401838152602001828152602001985050505050505050506040516020818303038152906040526040518082805190602001908083835b602083106103f35780518252601f1990920191602091820191016103d4565b5181516020939093036101000a600019018019909116921691909117905260405192018290039091209a9950505050505050505050565b600061043a87878787878761027b565b600160a060020a03881660009081526020819052604090208054600101905590506104658189610929565b15156104e1576040805160e560020a62461bcd02815260206004820152603060248201527f476173426f793a3a666f7277617264205369676e6572206973206e6f7420616e60448201527f20617070726f766564207369676e657200000000000000000000000000000000606482015290519081900360840190fd5b600082111561065a57600160a060020a0383161515610570576040805160e560020a62461bcd02815260206004820152602260248201527f72657761726420746f6b656e2061646472657373206e6f74207370656369666960448201527f6564000000000000000000000000000000000000000000000000000000000000606482015290519081900360840190fd5b604080517fa9059cbb000000000000000000000000000000000000000000000000000000008152336004820152602481018490529051600160a060020a0385169163a9059cbb9160448083019260209291908290030181600087803b1580156105d857600080fd5b505af11580156105ec573d6000803e3d6000fd5b505050506040513d602081101561060257600080fd5b5051151561065a576040805160e560020a62461bcd02815260206004820152601c60248201527f72657761726420746f6b656e207472616e73666572206661696c656400000000604482015290519081900360640190fd5b610665868686610b72565b15156106e1576040805160e560020a62461bcd02815260206004820152603c60248201527f476173426f793a3a666f7277617264206578656375746543616c6c20666f727760448201527f6172646564206d6574617472616e73616374696f6e206661696c656400000000606482015290519081900360840190fd5b85600160a060020a031687600160a060020a03167f6d4a868d9686051f889f61dc96415c0809f248cd6ce33eb543ff445b972084fe8a888888888860405180806020018781526020018060200186600160a060020a0316600160a060020a031681526020018581526020018460001916600019168152602001838103835289818151815260200191508051906020019080838360005b8381101561078f578181015183820152602001610777565b50505050905090810190601f1680156107bc5780820380516001836020036101000a031916815260200191505b50838103825287518152875160209182019189019080838360005b838110156107ef5781810151838201526020016107d7565b50505050905090810190601f16801561081c5780820380516001836020036101000a031916815260200191505b509850505050505050505060405180910390a35050505050505050565b60006020819052908152604090205481565b60016020526000908152604090205460ff1681565b3360009081526001602052604090205460ff1615156108c9576040805160e560020a62461bcd02815260206004820181905260248201527f73656e646572206973206e6f7420616e20617070726f766564207369676e6572604482015290519081900360640190fd5b600160a060020a038216600081815260016020908152604091829020805460ff1916851515908117909155825190815291517fc56d2bffd36262d8729e7044ab1a0c75bff0a95afcab380c95b56c6b32e415bf9281900390910190a25050565b6000806000808451604114151561098a576040805160e560020a62461bcd02815260206004820152601860248201527f696e76616c6964207369676e6174757265206c656e6774680000000000000000604482015290519081900360640190fd5b50505060208201516040830151606084015160001a601b60ff821610156109af57601b015b8060ff16601b14806109c457508060ff16601c145b1515610a40576040805160e560020a62461bcd02815260206004820152602660248201527f7369676e61747572652e7628657273696f6e292073686f756c6420626520323760448201527f206f722032380000000000000000000000000000000000000000000000000000606482015290519081900360840190fd5b6001600060018860405160200180807f19457468657265756d205369676e6564204d6573736167653a0a333200000000815250601c0182600019166000191681526020019150506040516020818303038152906040526040518082805190602001908083835b60208310610ac55780518252601f199092019160209182019101610aa6565b51815160209384036101000a60001901801990921691161790526040805192909401829003822060008084528383018087529190915260ff8b1683860152606083018d9052608083018c9052935160a08084019750919550601f1981019492819003909101925090865af1158015610b41573d6000803e3d6000fd5b505060408051601f190151600160a060020a03168352602083019390935250016000205460ff169695505050505050565b600080600083516020850186885af19493505050505600a165627a7a72305820841a91581dad71a6c63010dc85b30927cd9cca13f193c9b2df7295ee64bfc7f00029",
    "source": "pragma solidity ^0.4.24;\n\n/*\n  GasBoy proxy contract that executes meta transactions for etherless accounts.\n\n  How it works:\n  1) An etherless account crafts a meta transaction and signs it\n  2) An approved relay account submits the transaction to the GasBoy and pays the gas\n  3) If the meta transaction is valid AND the etherless account has approved GasBoy to \n    transferFrom() CUSD on its behalf, the transaction is executed and the relayer \n    is paid in CUSD from the signer\n\n  Inspired by:\n    @austintgriffith - https://github.com/austintgriffith/bouncer-proxy\n    @avsa - https://www.youtube.com/watch?v=qF2lhJzngto found this later: https://github.com/status-im/contracts/blob/73-economic-abstraction/contracts/identity/IdentityGasRelay.sol\n    @mattgcondon - https://twitter.com/mattgcondon/status/1022287545139449856 && https://twitter.com/mattgcondon/status/1021984009428107264\n    @owocki - https://twitter.com/owocki/status/1021859962882908160\n    @danfinlay - https://twitter.com/danfinlay/status/1022271384938983424\n    @PhABCD - https://twitter.com/PhABCD/status/1021974772786319361\n    gnosis-safe\n    uport-identity\n*/\n\n/**\n* @dev GasBoy proxy contract that executes meta transactions for etherless accounts.\n*/ \ncontract GasBoy {\n\n  /** @dev STORAGE stores signer transaction nonces to prevent replay attacks **/\n  mapping(address => uint) public nonce;\n\n  /** @dev STORAGE stores approved signers who can sign metatransactions that can be forwarded via GasBoy::forward() **/\n  mapping(address => bool) public signers;\n\n  constructor() public {\n    signers[msg.sender] = true;\n  }\n\n  /** FALLBACK FUNCTION **/\n  // copied from https://github.com/uport-project/uport-identity/blob/develop/contracts/Proxy.sol\n  function () public payable { emit Received(msg.sender, msg.value); }\n\n\n  /** MODIFIERS **/\n  modifier onlySigners() {\n    require(signers[msg.sender], \"sender is not an approved signer\");\n    _;\n  }\n\n  /** EVENTS **/\n  event UpdateSigners(address indexed _account, bool _status);\n  event Received (address indexed sender, uint value);\n  event Forwarded (bytes sig, address indexed signer, address indexed destination, uint value, bytes data,address rewardToken, uint rewardAmount,bytes32 _hash);\n\n\n  /** PAYABLE ACTIONS */\n\n  /**\n  * @dev Toggle relayer _account ability to forward metatransactions to GasBoy \n  * @param _account pending relayer account\n  */\n  function updateSigners(address _account, bool _status) public onlySigners {\n   signers[_account] = _status;\n   emit UpdateSigners(_account, _status);\n  }\n\n  // original forward function copied from https://github.com/uport-project/uport-identity/blob/develop/contracts/Proxy.sol\n  /**\n  * @dev Forward signer's signed metatransaction from relayer to GasBoy\n  * @param sig signature of transaction\n  * @param signer signer of transaction\n  * @param destination transaction is sent to this contract\n  * @param value amount of ETH contained in transaction\n  * @param data transaction data to send\n  * @param rewardToken address of token to pay relayer in\n  * @param rewardAmount amount of token to pay relayer in\n  */\n  function forward(bytes sig, address signer, address destination, uint value, bytes data, address rewardToken, uint rewardAmount) public {\n      bytes32 _hash = getHash(signer, destination, value, data, rewardToken, rewardAmount);\n      //increment the hash so this tx can't run again\n      nonce[signer]++;\n      require(signerIsApproved(_hash,sig),\"GasBoy::forward Signer is not an approved signer\");\n\n      // Compensate Relayer in CUSD for spending ETH on behalf of signer\n      if(rewardAmount>0){\n        require(rewardToken != address(0), \"reward token address not specified\");\n        //REWARD TOKEN\n        require((StandardToken(rewardToken)).transfer(msg.sender,rewardAmount), \"reward token transfer failed\");\n      }\n\n      require(executeCall(destination, value, data), \"GasBoy::forward executeCall forwarded metatransaction failed\");\n      emit Forwarded(sig, signer, destination, value, data, rewardToken, rewardAmount, _hash);\n  }\n\n  /** CALLABLE/NONPAYABLE ACTIONS **/\n\n  /**\n  * @dev Return hash containing all metatransaction information\n  * @param signer signer of transaction\n  * @param destination transaction is sent to this contract\n  * @param value amount of ETH contained in transaction\n  * @param data transaction data to send\n  * @param rewardToken address of token to pay relayer in\n  * @param rewardAmount amount of token to pay relayer in\n  * @return bytes32 hash\n  */\n  function getHash(\n    address signer, \n    address destination, \n    uint value, \n    bytes data, \n    address rewardToken, \n    uint rewardAmount\n  ) public view returns(bytes32){\n    return keccak256(abi.encodePacked(\n      address(this), \n      signer, \n      destination, \n      value, \n      data, \n      rewardToken, \n      rewardAmount, \n      nonce[signer]\n    ));\n  }\n\n  /** INTERNAL HELPER FUNCTIONS **/\n\n  // copied from https://github.com/uport-project/uport-identity/blob/develop/contracts/Proxy.sol\n  // which was copied from GnosisSafe\n  // https://github.com/gnosis/gnosis-safe-contracts/blob/master/contracts/GnosisSafe.sol\n  /**\n  * @dev Broadcast signed metatransaction to EVM\n  * @param to transaction is sent to this contract\n  * @param value amount of ETH contained in transaction\n  * @param data transaction data to send\n  * @return True if successful False otherwise\n  */\n  function executeCall(address to, uint256 value, bytes data) internal returns (bool success) {\n    assembly {\n       success := call(gas, to, value, add(data, 0x20), mload(data), 0, 0)\n    }\n  }\n\n  //borrowed from OpenZeppelin's ESDA:\n  //https://github.com/OpenZeppelin/openzeppelin-solidity/blob/master/contracts/cryptography/ECDSA.sol\n  /**\n  * @dev Recover signer of original metatransaction and verify that they are approved\n  * @param _hash bytes32 message, the hash is the signed message. What is recovered is the signer address.\n  * @param _signature bytes signature, the signature is generated using web3.eth.sign()\n  * @return address of hash signer\n  */\n  function signerIsApproved(bytes32 _hash, bytes _signature) internal view returns (bool){\n    bytes32 r;\n    bytes32 s;\n    uint8 v;\n\n    require(_signature.length == 65, \"invalid signature length\");\n\n    // Divide the signature in r, s and v variables\n    // ecrecover takes the signature parameters, and the only way to get them\n    // currently is to use assembly.\n    // solium-disable-next-line security/no-inline-assembly\n    assembly {\n      r := mload(add(_signature, 32))\n      s := mload(add(_signature, 64))\n      v := byte(0, mload(add(_signature, 96)))\n    }\n    // Version of signature should be 27 or 28, but 0 and 1 are also possible versions\n    if (v < 27) {\n      v += 27;\n    }\n    require(v == 27 || v == 28, \"signature.v(ersion) should be 27 or 28\");\n    return signers[ecrecover(keccak256(\n      abi.encodePacked(\"\\x19Ethereum Signed Message:\\n32\", _hash)\n    ), v, r, s)];\n  }\n}\n\ncontract StandardToken {\n  function transfer(address _to,uint256 _value) public returns (bool) { }\n}",
    "sourcePath": "/Users/nicholaspai/Carbon/Jeeves/contracts/GasBoy.sol",
    "compiler": {
        "name": "solc",
        "version": "0.4.25+commit.59dbf8f1.Emscripten.clang"
    },
    "schemaVersion": "3.0.0-beta.1",
    "updatedAt": "2018-11-28T19:40:37.269Z"
}